:020000040800F2
:1000000000000220FD060008F9060008955C0008C3
:10001000F9060008F9060008F906000800000000CB
:10002000000000000000000000000000F9060008C9
:10003000F906000800000000F9060008855C0008C9
:10004000F9060008F9060008F9060008F906000894
:10005000F9060008F9060008F9060008F906000884
:10006000F9060008F9060008F9060008DD5800083E
:10007000E958000851440008F558000801590008E3
:10008000F9060008F54B0008F9060008F906000813
:10009000F9060008F9060008F9060008F906000844
:1000A000F9060008F9060008F9060008F906000834
:1000B000F9060008F9060008F9060008294C0008AE
:1000C000F9060008354C0008F9060008F906000892
:1000D000F9060008F9060008F9060008F906000804
:1000E000F9060008F906000800000000F9060008FB
:1000F000F9060008F9060008F9060008F9060008E4
:10010000F9060008F9060008F9060008F9060008D3
:10011000F9060008F9060008F9060008F9060008C3
:10012000F9060008F9060008F9060008F9060008B3
:10013000F9060008F9060008F9060008F9060008A3
:1001400000000000000000000000000000000000AF
:10015000F9060008F9060008F9060008F906000883
:10016000414C0008F9060008F9060008F9060008E5
:10017000F9060008F9060008F9060008F906000863
:10018000F9060008F9060008F9060008F906000853
:10019000F9060008F9060008F9060008F906000843
:1001A000F9060008F9060008F9060008F906000833
:1001B00025560008F9060008F9060008F9060008A7
:1001C000F9060008F9060008F9060008F906000813
:1001D000F9060008F9060008F9060008F906000803
:1001E000F9060008F9060008F9060008F9060008F3
:1001F000F9060008F9060008F9060008F9060008E3
:10020000F9060008F9060008F9060008F9060008D2
:10021000F9060008F9060008F9060008F9060008C2
:10022000F9060008F9060008F906000800000000B9
:10023000F9060008F906000800000000F9060008A9
:10024000F9060008F9060008F9060008F906000892
:10025000F9060008F9060008F9060008F906000882
:10026000F9060008F9060008F9060008F906000872
:10027000F9060008F9060008F90600080000000069
:10028000F9060008F9060008F90600080000000059
:0802900000000000F90600085F
:1002A00010B5054C237833B9044B13B10448AFF3B0
:1002B00000800123237010BDD8000024000000003E
:1002C000B407010808B5034B1BB103490348AFF35A
:1002D000008008BD00000000DC000024B407010815
:1002E00001F0FF01102A2BDB10F0070F08D010F8E7
:1002F000013B013A8B422DD010F0070F42B3F6D1EB
:10030000F0B441EA012141EA014122F007047FF003
:1003100000070023F0E80256083C85EA010586EA5A
:10032000010685FA47F5A3FA87F586FA47F6A5FA96
:1003300087F68EB9EED1F0BC01F0FF0102F00702A2
:1003400032B110F8013B013A83EA010313B1F8D14D
:100350000020704701387047002D06BF354603382E
:10036000073815F0010F07D1013015F4807F02BF67
:10037000013015F4C03F0130F0BC0138704700BFB8
:1003800081F0004102E000BF83F0004330B54FEA46
:1003900041044FEA430594EA050F08BF90EA020FB3
:1003A0001FBF54EA000C55EA020C7FEA645C7FEA46
:1003B000655C00F0E2804FEA5454D4EB5555B8BF69
:1003C0006D420CDD2C4480EA020281EA030382EADA
:1003D000000083EA010180EA020281EA0303362D6C
:1003E00088BF30BD11F0004F4FEA01314FF4801C3F
:1003F0004CEA113102D0404261EB410113F0004F51
:100400004FEA03334CEA133302D0524263EB430307
:1004100094EA050F00F0A780A4F10104D5F1200EA5
:100420000DDB02FA0EFC22FA05F2801841F1000100
:1004300003FA0EF2801843FA05F359410EE0A5F1D4
:1004400020050EF1200E012A03FA0EFC28BF4CF005
:10045000020C43FA05F3C01851EBE37101F00045BB
:1004600007D54FF0000EDCF1000C7EEB00006EEBC8
:100470000101B1F5801F1BD3B1F5001F0CD3490852
:100480005FEA30004FEA3C0C04F101044FEA4452A9
:1004900012F5800F80F09A80BCF1004F08BF5FEA30
:1004A000500C50F1000041EB045141EA050130BD10
:1004B0005FEA4C0C404141EB0101013C28BFB1F522
:1004C000801FE9D291F0000F04BF01460020B1FA6D
:1004D00081F308BF2033A3F10B03B3F120020CDA40
:1004E0000C3208DD02F1140CC2F10C0201FA0CF01E
:1004F00021FA02F10CE002F11402D8BFC2F1200C83
:1005000001FA02F120FA0CFCDCBF41EA0C01904038
:10051000E41AA2BF01EB0451294330BD6FEA040481
:100520001F3C1CDA0C340EDC04F11404C4F120026C
:1005300020FA04F001FA02F340EA030021FA04F37E
:1005400045EA030130BDC4F10C04C4F1200220FAD5
:1005500002F001FA04F340EA0300294630BD21FA13
:1005600004F0294630BD94F0000F83F4801306BFD9
:1005700081F480110134013D4EE77FEA645C18BFCD
:100580007FEA655C29D094EA050F08BF90EA020F64
:1005900005D054EA000C04BF1946104630BD91EA5C
:1005A000030F1EBF0021002030BD5FEA545C05D15F
:1005B0004000494128BF41F0004130BD14F580049E
:1005C0003CBF01F5801130BD01F0004545F0FE4112
:1005D00041F470014FF0000030BD7FEA645C1ABF47
:1005E000194610467FEA655C1CBF0B46024650EA7E
:1005F000013406BF52EA033591EA030F41F40021AA
:1006000030BD00BF90F0000F04BF0021704730B52F
:100610004FF4806404F132044FF000054FF0000104
:1006200050E700BF90F0000F04BF0021704730B5C5
:100630004FF4806404F1320410F0004548BF40429A
:100640004FF000013EE700BF42004FEAE2014FEAEF
:1006500031014FEA02701FBF12F07F4393F07F4FCA
:1006600081F06051704732F07F4208BF704793F0CD
:100670007F4F04BF41F40021704730B54FF46074E0
:1006800001F0004521F000411CE700BF50EA0102E3
:1006900008BF704730B54FF000050AE050EA01028C
:1006A00008BF704730B511F0004502D5404261EBFC
:1006B00041014FF4806404F132045FEA915C3FF43D
:1006C000D8AE4FF003025FEADC0C18BF03325FEADA
:1006D000DC0C18BF033202EBDC02C2F1200300FA8B
:1006E00003FC20FA02F001FA03FE40EA0E0021FAB0
:1006F00002F11444BDE600BFFEE700BF0B480C4A00
:10070000904203D0121A0B490EF01CFB0A480B4A08
:10071000904203D0121A00210EF022FB05F026FCB5
:100720000EF0ECFA01F03EF9FEE700BF00000024F5
:10073000D4000024D0070108D8000024ECF90024DC
:1007400010B504464FF41652002124302DED028BD3
:10075000B0EE408A84ED000A0EF002FB9FED1E6AA7
:10076000DFED1E6A0020DFED1E7A0121C7FEA67AAA
:10077000C6EE086A9FED1B7A9FED1B6A00239FED72
:100780001B5A1B4A636067EE877A94ED027AFDEE8E
:10079000005A2261B5EEC07A9FED167A67EE887A2C
:1007A00087FE057AF1EE10FA87FE467AC4ED057AE7
:1007B00067EE277AB5EE006ABDEC028B48BFF1EE1A
:1007C000666AC4ED037A86FEA57AC4E9070187FE4E
:1007D000467A84ED027A10BD9A99993FCDCCC040FB
:1007E000CDCCCC3D6F12833A7B146E3F00000000ED
:1007F000CDCC4C3E6666663F90ED027AF7EE006A1D
:10080000D0ED017A77EE277A70B5F4EEE67AF1EE64
:1008100010FA51DD77EEE67AB1EE477A76EEE77AB6
:1008200080ED027AC0ED017AD0ED036A40F65F13E5
:1008300090ED057AC269A6EEA77A284900EB820EF0
:1008400090ED046AFDEEC77A17EE904AF8EEE77A6B
:10085000A34277EE677A28BF23460362134402F669
:100860005F12C0ED067A03F1010CA1FB0346A1FB68
:100870000C45360AA1FB02414FF416642D0A04FB15
:100880001633090A04FB15CC00EB830304FB11218A
:1008900000EB8C0C93ED097ADCED096A76EEC76A01
:1008A000A7EEA67AF0EE407AE6EE077AB0EE470AB7
:1008B000CEED097AC16170BDBFEE006AF4EEC67A72
:1008C000F1EE10FA07D577EEA67AB1EE477A76EE1A
:1008D000677A80ED027AC0ED017AA5E7B5814E1BFB
:1008E00010B52DED028BB0EE408A0446FFF728FFCD
:1008F00042F2A450B0EE480A2044FFF721FF04F56D
:100900008040DFED146AB7EE006A00F64C3300F564
:10091000356400F64832B5EE007A4FF07C51F6EEC1
:10092000087A87FE267ABDEC028B87FE467A83ED35
:10093000007A00F6583300F65430C7FEA67AC7FE98
:10094000C67AC4ED007A1160C3ED006AC0ED006A9A
:1009500010BD00BF00000000F8B500F58044002382
:10096000B0EE405A074604F6543604F65835F7EE12
:10097000005A33602B60FFF73FFF04F64C33F0EE74
:10098000407AD6ED006A93ED006AB0EE450A95ED27
:10099000007A42F2A45035EEC65AA7EE867A384461
:1009A000E7EE856AC6ED006A85ED007AFFF724FF61
:1009B00004F53563D6ED007A04F64834D3ED006AC9
:1009C00095ED007A75EEE65AA6EE807AD4ED006ACF
:1009D000E5EE807A27EE267A27EEA60A86ED000A53
:1009E00085ED007AF8BD00BF44F65433034493ED1F
:1009F000000A704700F58040F7EE007A9FED077A15
:100A000000F64C3300F5356080FE070A80FE670A69
:100A100083ED000A80ED000A704700BF000000006F
:100A2000F1EE007AD0ED006A90ED027A00F5005305
:100A300020EE270A03F2A452B5EEC07A03F2A453C3
:100A4000B5EE007AC0EE267AF1EE10FAFDEE006AFD
:100A500048BFF1EE677AC7FEA67AD2ED006AC7FEFC
:100A6000C77AC0ED027AC0EE267A92ED027AB5EE30
:100A7000C07AFDEE006AB5EE007AF1EE10FA48BFDA
:100A8000F1EE677AC7FEA67AC7FEC77AC3ED027A8F
:100A9000704700BFDFED147A42F2A4539FED136A52
:100AA000F0EE676A9FED127A0344E0EE066A93ED7A
:100AB000006AC7FEA67A67EE877A90ED007AD0EDDD
:100AC000036A27EE877A67EE867AC6FEC76AC0EDAC
:100AD000036AD3ED036A80ED057AC3ED057AC6FE9D
:100AE000E77AC3ED037A7047CDCCCC3DCDCCFC404A
:100AF0006F12833A42F2A4539FED107ADFED107A21
:100B0000034487FE800A20EE070AD0ED007AD3ED79
:100B1000006A90ED037A60EE277A20EE260A87FEBF
:100B2000677AC0ED057A80ED037A83ED050AD3ED8F
:100B3000037A87FEC00A83ED030A70476F12833A77
:100B4000CDCCCC3DB1EE047AD0ED006AF7EE007A60
:100B5000E6EE877A27EE800A0DF0E6BCDFED2C7A10
:100B6000B7EE005A80FE270A80FE450A20EE006A92
:100B70009FED287AB3EE084A80ED000AF6EE005A9F
:100B800066EE067AF0EE006AF8EE084A67EE807AC2
:100B900076EEC06A67EE847A66EE806AE0EE657A89
:100BA00067EE867AE0EE257A37EEC76AC0ED017A05
:100BB000F0EE477AE6EE267AF4EEE47AF1EE10FAF9
:100BC00020D4B0EE087AF4EEC77AF1EE10FA14DC15
:100BD000B3EE0B7AF2EE026AB0EE476A67EEA66AEF
:100BE000A7EEA76AA7EEA67A67EE867AC7EE876AAF
:100BF000C5EE267AC0ED027A7047F0EE457AC0ED78
:100C0000027A7047FFEE007AC0ED027A704700BFAB
:100C100000000000C3F5A83EDFED297AF4EEE70AF4
:100C200010B5F1EE10FA04462DED048BF0EE418A7A
:100C3000B0EE409A54BFB0EE600AB0EE670AB0EE74
:100C4000608A0DF079FAF0EE409AB0EE680A0DF085
:100C500073FA032C30D8DFE804F0261B0F0229EECC
:100C6000090A78EEC88A20EE099AB0EE480AA9EE81
:100C7000280ABDEC048B10BD70EE697AB0EE690AEB
:100C8000A7EE890ABDEC048BBDE810400DF0B8B9A1
:100C900029EE099A78EEC88AB0EE480AA9EE280A29
:100CA000BDEC048B10BD78EEC88AB0EE480AA8EE01
:100CB000890ABDEC048B10BD9FED020AD9E700BF85
:100CC00095BFD63300000000704700BF704700BFDB
:100CD000704700BF704700BF704700BF704700BF3C
:100CE000704700BF704700BF704700BF704700BF2C
:100CF000704700BF704700BF704700BF104B1B68B4
:100D000010B463B90F4A104C137010481049114ABF
:100D1000237003700B7013705DF8044B7047032B46
:100D2000FAD100230C4A0D4C13700D480D490E4AA0
:100D3000237003705DF8044B0B701370704700BF95
:100D4000400100247898002412000024110000249F
:100D500013000024050000240600002408000024DD
:100D60001000002404000024070000242DE9F047AF
:100D7000BD4C204601F030FA204601F03DFA94F8CF
:100D800061317F2B00F06181802B40F0F2800123E4
:100D90000321B64AB64F13703960B64AB64913708C
:100DA0000B70B64AB6490B701370B648B64D02F0D8
:100DB00031FEB64EB648DFF85CA385ED000A02F0BE
:100DC00029FEB448DFF8509386ED000A02F022FEB7
:100DD000B148DFF848838AED000A02F01BFEAF48F5
:100DE00089ED000A02F016FEAD4888ED000A02F017
:100DF00011FEAC4A296882ED000A3B68AA4A1160DC
:100E0000002B40F0B880A94A96ED007A11780029AD
:100E100000F0B281A649D1ED007AA64977EEC77AF3
:100E200091ED007AF0EEE77AF4EEC77AF1EE10FA7F
:100E300000F1D581A04B9AED007A1A78002A00F0D3
:100E40006F819E4AD2ED007A9A4A77EEC77A92ED88
:100E5000007AF0EEE77AF4EEC77AF1EE10FA00F1DC
:100E6000B781974B99ED007A1A78002A00F06581D6
:100E70009449904AD1ED007AD2ED006A77EEC77AB4
:100E8000F0EEE77AF4EEE67AF1EE10FA00F19981ED
:100E90008D4B98ED007A1A78002A00F05B818B491F
:100EA000844AD1ED007AD2ED006A77EEC77AF0EE8F
:100EB000E77AF4EEE67AF1EE10FA00F17B81844BEA
:100EC0001A78002A00F051818249D1ED007A794ADE
:100ED00037EEC00A92ED007AB0EEC00AB4EEC70A4F
:100EE000F1EE10FA05D500207B4A0121187082F836
:100EF000341094F881317F2B0ED1784AB7EE000A76
:100F0000DFED777A1378774883F00103002B1370B5
:100F100007FE800A02F034FE94F891317F2B0ED147
:100F2000714AF7EE007A9FED6E0A13786F4883F0EE
:100F30000103002B137007FE800A02F021FE94F8D3
:100F4000A12194F85131A2F1FF026948A3F1FF03F6
:100F5000684CB2FA82F26849B3FA83F390ED000A62
:100F6000520962485B0922700B70BDE8F04702F03D
:100F700007BE3F4F19E7032BBBD13C4B96ED007AE0
:100F80001A78002A40F0FF805C4B83ED007A5C4BBE
:100F900083ED007A384B9AED007A1A78002A00F037
:100FA0003D81584AD2ED007A424A77EEC77A92EDF7
:100FB000007AF0EEE77AF4EEC77AF1EE10FA05D592
:100FC00000221A700122444B83F83420294B99EDFA
:100FD000007A1A78002A00F01A814B49354AD1ED7F
:100FE000007AD2ED006A77EEC77AF0EEE77AF4EE97
:100FF000E67AF1EE10FA05D50021374A197001237F
:1010000082F834301E4B98ED007A1A78002A00F0EE
:10101000EC803E49274AD1ED007AD2ED006A77EEA6
:10102000C77AF0EEE77AF4EEE67AF1EE10FA05D53B
:101030000020294A0121187082F834100F4B1A78C9
:10104000002A00F0DD8032493FE701230021174AE2
:10105000074F137039601A4A174913700B701C4AF6
:1010600019490B701370A0E60099002408000024B1
:101070004001002411000024060000240700002481
:10108000040000245C990024D49F0024D89F0024ED
:101090009C990024DC9900247C990024BC990024AC
:1010A000FC990024E89F0024A0ED002412000024F5
:1010B000A4ED00240C0000247898002470980024EB
:1010C00010000024C8A1002413000024ACED00246B
:1010D000050000247C98002488A10024104D0024E1
:1010E00000000000F49F00246401002410A00024EC
:1010F000C0A1002434010024C4A100247CA1002448
:1011000078A10024AC98002494ED00243801002438
:10111000EC9F0024DC9F0024E09F0024E49F002437
:10112000424B434A83ED007A424B82ED007A1A78B3
:1011300099ED007A002A7FF49BAE3F4B3F4A83ED46
:10114000007A3F4B82ED007A1A7898ED007A002AF7
:101150007FF4A5AE3B4B3C4A83ED007A3B4B82EDDE
:10116000007A1A78002A7FF4AFAE394A394B82ED03
:10117000000A83ED000ABCE6374B83ED007A374B5B
:1011800083ED007A56E6364AD2ED007A354A77EE9C
:10119000C77A92ED007AF0EEE77AF4EEC77AF1EED4
:1011A00010FA7FF5F7AE00221A7001222E4B83F859
:1011B0003420EFE600202C4A0121187082F8341008
:1011C0007DE60021284A1970012382F834305FE659
:1011D00000221A700122244B83F8342041E6137058
:1011E0000122214B83F8342024E6204B204A83ED52
:1011F000007A204B82ED007A1A78002A7FF423AF20
:101200001D4A1E4B82ED000A83ED000A71E61C4A5E
:101210001C4B82ED007A83ED007AF3E61A4A1B4BF1
:1012200082ED007A83ED007AD0E600BF709800244A
:101230007498002410000024C8A10024CCA100242C
:1012400013000024ACED0024B0ED002405000024C0
:10125000809800247C980024A8ED0024A4ED0024AC
:1012600078A100240C00002488A100243801002467
:101270003C01002407000024F09F0024EC9F002480
:1012800098ED002494ED0024B0980024AC9800243C
:10129000AD4BB2EE081AF2EE000A2DE9F04F2DED3B
:1012A000108B93ED009A85B0A84B8346B0EE490AA7
:1012B0000020D3ED008ACDE90121FFF7ADFCF2EE6D
:1012C000027AB4EEE70AF1EE10FA00F15F83B0EEB5
:1012D000408A9F4AB6EE006B9E4B002092ED000ABA
:1012E000B1EE04CA9FED9C1AF7EE00EAB7EEC05AC1
:1012F000DFED9A0A93ED00AAB0EE009A984CDFED6C
:1013000099AA9FED8F7BA5EE067BF7EEC7CBFFF783
:1013100083FC954B00209FED951AB0EE40BAD3EDBB
:10132000007A934BDFED8D0AA7EE8CCA93ED000A8D
:10133000FFF772FC9FED8F1ADFED8F0A0220F0EEAF
:10134000409A94ED000AFFF767FCD4ED006A9FED28
:101350008B7AF1EE087A8A4B0220F4EEC76A9FED91
:10136000896A93ED00EAB6EE007A874BF1EE10FA47
:10137000864C7EEECE6AD3ED00BA854B54BFB0EEFC
:1013800046DAB0EE40DA9FED831A93ED000AE6EEFE
:1013900087AADFED780A6BEEA7BACBFE89BACBFE3F
:1013A000E7BAFFF739FCD4ED017A94ED007AF0EE5C
:1013B00040DAD4ED036A77EE877A94ED027AF4EEA0
:1013C000EE7AC4ED017AF1EE10FA19DB37EE267AE7
:1013D00077EEEE7A84ED027AC4ED017A0DF0C8FC66
:1013E00006EE100AFFEE006A94ED027ABAEEE06AA9
:1013F000D4ED017AE6EE096A76EEC76AC4ED036AB7
:10140000B0EE005A644CF0EE085ADFF8BC8127EECB
:10141000A76AF7EE00EAE7EEC55AB6EE00FAB0EEBC
:101420006E9A66EE257AA7EEA67AA7EE0F9AFFF7D8
:101430009DFCB7EE081A0220F0EE4F0AB0EE490A02
:10144000FFF7EAFBFCEEC87A544A55481178CDED17
:10145000037A9DF80C3084ED020AB0EE4E0A8B42FE
:1014600028BF0B46D360FFF779FBB0EE6D0A4D48FD
:101470000CF0DAF9B0EE4D0A4B480CF0D5F98EEECF
:10148000AB7A4A4B9FED356AD3ED087A8BFE06BAEC
:101490007EEEE77ADFED336A8BFE6EBA2BEE26BA6C
:1014A000C3ED00BA88ED00BA77EE6EEA67EEAE7A69
:1014B000C3ED097A237813B9012384F834303C4D05
:1014C00035480BF0FFFE3B4CB0EE407AD5ED045AA8
:1014D000DFF8F8902046B0EE4C0A9FED206ACCEE83
:1014E000257A89ED007AC7FE867A84ED02CAF7EE86
:1014F000006AC7FEE67AC5ED007A0CF06FFD9FED3D
:101500002E1A002084ED060AB0EE490ADFED2B0A00
:10151000FFF782FB2A4C20EE2C0A204684ED020ABB
:101520000CF05CFD019B84ED060A002B00F0878126
:101530000026DFF89CA0234C57E000BFAFF30080EB
:1015400000000040E17A843F94ED0024A4ED0024E3
:10155000ACED00247098002417B7D13800000000CB
:10156000AC9800249A99993E7C980024CDCC4C3DAF
:1015700078A100240000C8420080BB450060B84547
:10158000C8A100240024744838010024DCA10024F0
:10159000EC9F00240080224478A000244401002411
:1015A000D0A100242CA00024B4980024F40000242E
:1015B000F0A1002484980024CDCC8C3F6666663F61
:1015C0000CA200249CED002470010024B0A0002493
:1015D00080A10024029BD34A1B6812683B441A6016
:1015E0000136019BB34200F02A81CF480CF014FB76
:1015F000D5ED017AD5ED006AB7EE007AB6EE006A55
:1016000077EEA67AB0EE478AF4EEC77AC5ED017A96
:10161000A0EE068AF1EE10FA80F23D8195ED027A95
:10162000D5ED036AB0EE005AC048F0EE085A27EE36
:10163000A76AB7EE00BAE7EEC55AF6EE00BAF0EECA
:101640004BCA66EE257AA7EEA67AE7EE2BCA0BF018
:1016500039FEB74B98ED00CA83ED000A0DF088FB08
:1016600007EE900A98ED007AFAEEE07AF4EEC77A87
:10167000F1EE10FA00F1E8800023AA4A1360AD48A9
:10168000B1EE00BA0BF01EFEF3EE047A28EE800AEB
:10169000A948B7EE00CAB700F6EE00BA20EE270A56
:1016A000FFF728FAB7EE041AF6EE080A002099EDC3
:1016B000000AFFF7B1FA60EE0A7AA04867EE887A6E
:1016C00067EEAC7A27EE8B0AFFF714FA9C480CF011
:1016D000A3FAF0EE4C7A9B4B9B48E0EE2B7A67EE38
:1016E0008B7A27EEA80AC3ED007A20EE0B0AFFF7EB
:1016F00001FAB0EE4C1AF0EE6B0A002099ED000AE8
:10170000FFF78AFA91480CF067FAF1EE040A9FEDB0
:10171000901A0020B0EE490AFFF77EFA8B480CF0D1
:101720006FFA9FED8C1ADFED8C0A0020B0EE490AAB
:10173000FFF772FA85480CF03DFA84480CF080F906
:1017400082480CF033FADBF8003044F2A712B0EE16
:10175000408A03EB8603D3ED007ADAF80430C4ED57
:10176000007A02FB03F3CAF804307C4B1B78002B91
:1017700000F0C780E9EE887A7948B0EE670AC4EDD8
:10178000007A0BF09FFF6C4884ED000AFFF7E4F845
:101790006948FFF729F9694884ED000AFFF7DCF88A
:1017A0006648FFF721F9684884ED000AFFF7D4F88E
:1017B0006548FFF719F96B4BB0EE408A84ED000ADB
:1017C0001B78002B00F09280644B1B78002B00F0FC
:1017D0008380B0EE480A64480BF0C2FF624B634856
:1017E00093ED0D0A84ED000A0BF0BAFF5F4BD3EDC9
:1017F0000C7A5F4BC4ED007A1B78002B3FF4EAAE05
:101800005C4B1B78002B40F084805B4BB7EE007A7A
:101810000136D3ED006ADBF8003037EE667A3B44E0
:1018200093ED006A029B27EE067A1B68A6EEA77A64
:101830003B4483ED007A019BB3427FF4D6AE05B002
:10184000BDEC108BBDE8F08F8BEE0C7A354B67EE5C
:10185000277AF5EE407AC3ED007AF1EE10FA3FF404
:101860000EAF344B1A78002A7FF409AF0122F0EE54
:10187000E77AF7EE086A83F83420404A28EEA77A20
:10188000C7FE2BBAC2ED007ACBFEE6BAC3ED02BAB0
:10189000C3ED03BAF3E6D5ED026A77EEC77A95EDAC
:1018A000036A36EE867AC5ED017A85ED027A0DF08F
:1018B0005FFA06EE100AF0EE005AFFEE006A95EDB0
:1018C000027ABAEEE06AD5ED017AE6EE256A76EEA6
:1018D000C76AC5ED036AA5E6B0EE480A2848FFF7D7
:1018E00031F920EE2A8A84ED008A72E725480BF050
:1018F00061FE244BD3ED057A28EE278A84ED008A19
:1019000062E7B0EE670A1E48FFF71CF960EE2A7A1C
:1019100030E7DBF800303B441A68029B1B683B440D
:101920001A605DE6AC0100248498002488A100249C
:10193000C0A1002474010024B4010024144D00242B
:101940000CA2002434A2002438A2002400A1002408
:101950000000C8420000D74400005C44C4A1002439
:1019600044010024340100242CA00024B498002455
:1019700064010024104D0024A0ED0024B0010024D7
:10198000D0A10024F400002400000000B2EE001AF0
:101990000020B0EE490A5FED040AFFF73DF9B0EE12
:1019A000408A96E42DE9F0410021D148D14C40F223
:1019B0000118D14D0026D14F2DED088B82B09FED3F
:1019C000D08A00F0E3FE3021C948B7EE009A00F05B
:1019D000F3FBC74800F0FAFBCA48F0EE408AFEF776
:1019E0007FFFB0EE480AC748FFF704F8F6EE009A0A
:1019F000B0EE480AC348FFF713F8B0EE490AC148F1
:101A0000FFF748F82046B0EE680A9FEDBFBA0BF02A
:101A100041FC2846B0EE680AC4ED029AC4ED039A70
:101A2000276284ED069A84ED058A0BF033FCC9EE3B
:101A300028BAB64CB64ADFEDB76A2046B64B85EDFC
:101A4000028AC5ED039AB0EE4B0AC6EEA87AC2ED43
:101A5000048A82ED018A82ED028A82ED038AC3ED57
:101A6000048A83ED018A89EEA87A83ED028A83EDE8
:101A7000038A2F6285ED069A85ED058AC4ED038AF7
:101A8000C4ED04BA84ED02BAC4ED019A84ED058A6E
:101A900087FE087AC7FE887A87FE497AC7FEC97A28
:101AA00082ED007AC3ED007A0CF098FAF1EE047A38
:101AB0009A4D204684ED060AA4F82480B0EE670A09
:101AC000C4ED027A26700CF089FA84ED060A2846E5
:101AD000934CB0EE680A0BF0DDFB85ED029A2046D0
:101AE00085ED039AB0EE4B0ADFED8EAA2F6285EDED
:101AF000069A85ED058AC4ED038AC4ED04BA84ED27
:101B000002BAC4ED019A84ED058A0CF067FAF0EE92
:101B1000407A2046A4F82480B0EE6A0A2670C4ED0C
:101B2000067AC4ED02AA0CF059FAF0EE407A7E482B
:101B3000B0EE680A84ED019A9FED7CAAC4ED067AA6
:101B4000FEF7CEFEB0EE480A7748FEF753FFB0EE40
:101B5000480A75480124FEF763FFB0EE480A724850
:101B6000FEF798FFB0EE680A7148FEF7B9FEB0EED6
:101B7000480A6F48FEF73EFFB0EE480A6C48FEF791
:101B80004FFFB0EE480A6A48FEF784FFB0EE680ADD
:101B900068480BF0C1FD9FED680A66480BF044FEF3
:101BA000B0EE4A0A63480BF0A3FE62489FED630A59
:101BB0000BF0E4FEB0EE680A61480BF0ADFD604842
:101BC0009FED5D0A0BF030FEB0EE4A0A5C480BF068
:101BD0008FFE5B489FED590A0BF0D0FEB0EE680A0D
:101BE00058480BF0E5FE584BB0EE680A57485C6069
:101BF00083ED009A0BF090FD9FED550A53480BF0D2
:101C000013FEDFF8E48151489FED520A0BF070FE9D
:101C1000B0EE690A4D480BF0B1FE40460BF046FDB0
:101C20004D494E48B0EE680A4D4B01604D481C705E
:101C300080ED008A4C484D4AC0ED00AA4C4B4D48FF
:101C4000147080ED008A83ED009A4B4A4B4B4C4850
:101C5000136080ED008A4B4A4B4813604FF080427E
:101C600080ED00AA49484A4D02604A484A4F80ED3B
:101C7000008A4A482E60036049483E700360494824
:101C8000494E01604949347081ED008A4849494C08
:101C9000C1ED00AA4849204688ED018A81ED008AFD
:101CA000464981ED008A464981ED00AA45490A600E
:101CB000454A82ED008A454A82ED008A444A82ED17
:101CC000008A444A82ED008A434A1360434B83ED05
:101CD000009A434B83ED008A0BF0D0FBDFED417A95
:101CE00094F83C30C4ED017A002B00F08F8081E045
:101CF000009900247401002488A1002400002041E0
:101D000000000000144D00240000C8428498002404
:101D1000DCA1002400004842F0A1002478A00024A7
:101D20000CA20024CDCCCC3D38A200243333B33EEA
:101D3000B40100242CA000240000FA44CDCCCC3EF9
:101D4000B498002400A1002480A10024B4A00024A1
:101D5000008022448FC2F53C17B7D13894ED00249F
:101D6000C4A10024ACED00247C980024340100249C
:101D7000A0ED002478A10024A4ED00246F12833A82
:101D8000AC98002470980024C8A1002438010024D5
:101D900040010024EC9F0024104D0024A8ED0024F5
:101DA0007498002498ED002464010024B0ED002410
:101DB00080980024F40000247CA10024B098002422
:101DC000CCA100243C010024F09F002468010024E1
:101DD0006C01002408A2002404A20024B001002405
:101DE000C0A10024000080C2440100240AD7A33B04
:101DF00000007A44D4ED006A87EEA67A77EEC77ABF
:101E0000F0EEE77A67EEA99AC4ED049A1FED097A1D
:101E1000B7EE008AD4ED0E6A4FF08043D4ED087A15
:101E200086EE870A236084ED027AFEEE006A78EE81
:101E3000677A67EEA67AC4ED097AB1EE400A0CF033
:101E4000DFF894ED0D7AD4ED027A84ED0A0A87EE7C
:101E5000270AB1EE400A0CF0D3F8D4ED006AB0EED8
:101E6000407A94ED0E0AC8EE267A4FF0785384ED4E
:101E7000087AE36078EE476AF2EE005A25EEC00A6F
:101E800077EEC87A67EEA67AC4ED097A0CF0B8F856
:101E9000162084ED0B0A00F005FD3A78ADF800003D
:101EA0001FED2D0A82F0010200991D4801F044FE49
:101EB000172000F0F7FC3278ADF8040082F0010240
:101EC0009FED180A0199184801F036FE174C144886
:101ED00001F068FE144801F065FE204600F078F934
:101EE000204600F079F9204600F086F94FF4FA71A7
:101EF000204600F01DF994F86131FF2B0CBF002340
:101F000003232B60FEF7FAFE0949204600F052F940
:101F1000034801F047FE044801F044FEF8E700BF23
:101F2000F49F002400007A4410A0002400990024AB
:101F30009112000870B50023414D424C4FF40072DD
:101F40006B6105F2D2402B62C5F8BC343E4E3F496E
:101F50000CF0F8FE22463E4928460CF04BF822468B
:101F600031463C480CF046F8224631463A480CF0DF
:101F700041F82246314639480CF03CF822463849AF
:101F800038480CF037F8384D2246384938480CF0BC
:101F900031F82246374938480CF02CF822462946B9
:101FA00036480CF027F82246294635480CF022F82E
:101FB0002946344D224634480CF01CF82246294666
:101FC00032480CF017F82246294631480CF012F836
:101FD000224629462F480CF00DF822462E492F485C
:101FE0000CF008F822462E492E480CF003F8102376
:101FF0002D4822462D4903700BF0FCFF2C4D224644
:102000002C492D480BF0F6FF22462A492B480BF0AD
:10201000F1FF224629462A480BF0ECFF2946294DBC
:10202000224629480BF0E6FF2246294627480BF0B6
:10203000E1FF224629462648BDE870400BF0DABF92
:102040000099002400000024D10C00080CFE0008B8
:10205000CD0C0008144D0024B401002438A2002443
:10206000E90C000870010024DD0C0008E10C0008F8
:10207000F4000024F90C0008D0A100242CA00024B6
:10208000B4980024D50C0008B4A0002474010024E6
:1020900088A1002478A00024ED0C000800A10024F1
:1020A000F10C000880A1002444010024E50C000884
:1020B000F50C0008C90C0008F49F002410A00024AF
:1020C000DCA10024D90C0008F0A10024849800248D
:1020D0000CA2002410B5037D82B0044601335BB22C
:1020E0000375037D5BB2012B03DDFF23037502B093
:1020F00010BD037D826859B240FA83F3019001EB71
:1021000081110A44197B094B41F04001009341239E
:1021100002F0D2FF0028EAD0204602F0A3FF0146D9
:10212000204602B0BDE8104002F006BFD5200008EE
:1021300000F0CEBBF8B5054600F15C0400F58E77E3
:102140002DED028B284600F0EBFB2046203401F0F9
:1021500085FCBC42F6D1B7EE008A05F170062C462C
:102160002846103400F0DCFBC8EE007AB442C4ED1F
:102170004D7AF5D105F25C4405F2CC46284600F0D4
:10218000CFFB23461C3483ED000AB442F6D1284627
:1021900000F0C6FB384601F061FC284600F0C0FBA9
:1021A000B7EE007ABDEC028BC7EE007AC5ED117A6E
:1021B000F8BD00BF00F090BB10B5044600F094FBE2
:1021C0002046BDE81040FFF7B5BF00BF00F088BB58
:1021D000183002F0D1B800BF38B500F15C0400F54A
:1021E0008E752046203401F015FCAC42F9D1204612
:1021F000BDE8384001F00EBC38B500F59E7400F51E
:10220000D6753C3001F068FC2046103401F00CFD1E
:10221000AC42F9D138BD00BF2DE9F04F89B08446FA
:10222000D0F8C04404270DF10F060DF107050DF19C
:1022300017090DF11808B24640F6FE7E01965E4B76
:1022400004AEBCF8D2B493E8030002ABF34583E8D4
:10225000030015F8012F4FEA221102F00F0301EBE2
:10226000811117FB03132344B3F80120C2F30B02BF
:102270000BEB020188BF42F48052C1F30B01A3F8BB
:102280000120A3F803104D49019B03C986E8030010
:102290004B4913F8012F03C9019302F00F0388E89B
:1022A00003001011BCF8D21400EB8010714517FB2D
:1022B00003032344B3F80120C2F30B0201EB020035
:1022C00088BF42F48052C0F30B00A3F80120A3F8AA
:1022D000030019F8013FBCF8D2141A1103F00F03E0
:1022E000714502EB821202EB83032344B3F8012011
:1022F000C2F30B0201EB020042F4805BC0F30B005F
:10230000A3F8030052D9AA45A3F801B097D1B4F8B5
:102310003D2040F6FE70BCF8D214C2F30B028B18BD
:10232000C3F30B03A4F83F3040F6FE739942B4F8B0
:10233000663088BF42F48052C3F30B03A4F83D20FB
:10234000BCF8D2145A18C2F30B02A4F8682040F665
:10235000FE729142B4F86A2088BF43F48053C2F3FE
:102360000B02A4F86630BCF8D2148B18C3F30B032D
:10237000A4F86C3040F6FE739942B4F86E3088BF12
:1023800042F48052C3F30B03A4F86A20BCF8D214C1
:102390005A188142C2F30B0288BF43F48053A4F859
:1023A0007020A4F86E3009B0BDE8F08FAA45A3F8FC
:1023B00001207FF444AFAAE70C00010834000108B3
:1023C000400001082DE9F04387B000270446A949E1
:1023D00005A8A94E059702F0AFFD059B06F1840202
:1023E000A64904F2BC45C4F8BC34FF23C4F8C814A1
:1023F0004FF0060E3946C4F8C424C4F8C06484F80B
:10240000D03401E0D4F8C0640A1101F00F008B0051
:10241000013102EB82129BB2202906F802E002EBA6
:102420008000D4F8C074D4F8C46407EB000CACF896
:102430000130ACF8033006F802E0D4F8C4240244BA
:10244000A2F80130A2F80330DCD194F8CA340B2B87
:102450000FD0B4F8CA24012304F2CC40A4F8CC2451
:10246000A4F8CE34039002F0A1F80021039802F002
:1024700087F904F5996704F2CA494FF0000817F884
:10248000011B0126022304AA41F0400128460096C0
:102490000391ADF8108002F0E7FD142003F0FCFB7F
:1024A000022304AA039928460096ADF8108002F092
:1024B000DBFD142003F0F0FB4FF4005202230399DC
:1024C000ADF81020284604AA009602F0CDFD142095
:1024D00003F0E2FB052343F20162039900932846CF
:1024E000ADF81020022304AA02F0BEFDB945C6D102
:1024F0002046FFF791FE94F8D0341B06FBD5D4F8A4
:10250000C024D4F8C434C4F8C424C4F8C034B2F825
:102510000310A3F80310B2F80710A3F80710B2F8DD
:102520000B10A3F80B10B2F80F10A3F80F10B2F8AD
:102530001310A3F81310B2F81710A3F81710B2F87D
:102540001B10A3F81B10B2F81F10A3F81F10B2F84D
:102550002310A3F82310B2F82710A3F82710B2F81D
:102560002B10A3F82B10B2F82F10A3F82F10B2F8ED
:102570003310A3F83310B2F83710A3F83710B2F8BD
:102580003B10A3F83B10B2F83F10A3F83F10B2F88D
:102590004410A3F84410B2F84810A3F84810B2F859
:1025A0004C10A3F84C10B2F85010A3F85010B2F829
:1025B0005410A3F85410B2F85810A3F85810B2F8F9
:1025C0005C10A3F85C10B2F86010A3F86010B2F8C9
:1025D0006410A3F86410B2F86810A3F86810B2F899
:1025E0006C10A3F86C10B2F87010A3F87010B2F869
:1025F0007410A3F87410B2F87810A3F87810B2F839
:102600007C10A3F87C10B2F88010A3F88010FF2192
:1026100084F8D01494F8D03401335BB284F8D03409
:1026200094F8D0345BB2012B04DD84F8D01407B0E9
:10263000BDE8F08394F8D01401954BB244FA81F1CF
:102640000F4C03EB831091F8C8144123009402440B
:1026500041F04001284602F02FFD0028E7D028462F
:1026600002F000FD0146284602F066FC07B0BDE816
:10267000F08300BF540001080000003000010B008F
:10268000D5200008F0B50646A9B01020002400F0BF
:1026900009F903460AA806F11807ADF80C3006F14F
:1026A0005C05039901F0E6FA132000F0FBF80346FD
:1026B0000DF13900ADF81030049901F0DBFA11206A
:1026C00000F0F0F803460DF14A00ADF8143005991A
:1026D00001F0D0FA142000F0E5F803460DF15B009C
:1026E000ADF81830069901F0C5FA122000F0DAF8BA
:1026F00003461BA8ADF81C30079901F0BBFA152062
:1027000000F0D0F803460DF17D00ADF820300899B7
:1027100001F0B0FA0F2000F0C5F803460DF18E006D
:10272000ADF82430099901F0A5FA042307220AA97B
:10273000384601F0ADFAE1B2384601F033FE014609
:1027400030460134019100F0EBF800232846DFED1C
:102750000E0A203501991A4601F03EF9062CEAD1FD
:102760002146384601F01EFE01463046019100F038
:10277000D7F80023DFED040A019906F58E701A469A
:1027800001F02AF929B0F0BD6F12033BF0B50646FF
:1027900089B0019100F060F80199304600F000F92D
:1027A000264B0DF1170506F59E740DF11E0793E8F3
:1027B00003000B0C0690ADF81C108DF81E3015F8B8
:1027C000010F00F06FF803463046ADF8143000F00A
:1027D000A7F82046059901F009FABD4204F110045A
:1027E000EDD11C2000F05EF803461B20ADF80C3044
:1027F00000F058F803460E20ADF8103000F052F803
:1028000003463046ADF8183000F08AF8069B06F112
:102810003C00DDE9031201F039F93046FFF7D2FD43
:102820003046FFF72FFF3046302100F05DF830468C
:1028300009B0BDE8F040FFF77DBC00BF4C000108C7
:10284000044B06221A7083F8412083F8842083F811
:10285000C5207047000000300F4A01230F494FF098
:10286000060C80F82730816040F2027180F810C0B9
:10287000A0F8251080F82B3010B4094CC0E90042B4
:1028800002F181725DF8044B0532C26040F60662C7
:10289000A0F82920704700BF0105080509050705B4
:1028A000000705001F2882B009D8084B03EB40023F
:1028B00013F81030507843EA002002B0704701232B
:1028C0000C2043EA002002B0704700BF68000108F6
:1028D000084603F0E1B900BF143001F053B800BF5F
:1028E000143001F04BB800BF38B500F114050446B0
:1028F0002DED028B284601F033F8284601F03EF812
:102900002846B0EE408A01F027F8D0ED007AF8EEC4
:10291000677A88EE277ABDEC028B84ED0E7A38BD9B
:1029200090ED0E0A704700BF30B5032491B0012529
:10293000194900234FF44172089106A9ADF82420EB
:1029400002939FED137BCDE90A45144D044602A87E
:102950008DED0C7B8DED0E7BCDE9063503F04CF84B
:1029600040F601333025ADF80430019800F056F8F8
:1029700003214FF07E53029A04F114000593CDE930
:10298000035103A900F0B6FF11B030BDAFF30080D2
:102990000000000001000000040504060402040415
:1029A00030B504462DED028B83B089B3012240F28D
:1029B00001130092ADF80430694604F1300003F0D1
:1029C00037FA204600F04CF8E01C02F0B5FB04F1A9
:1029D000250001F0EBFD04F1140504F1290001F0DC
:1029E000E5FD2046FFF7A0FF284600F0C7FF284678
:1029F000B0EE408A00F0B0FFD0ED007AF8EE677AD2
:102A000088EE277A84ED0E7A03B0BDEC028B30BDE0
:102A100040F201130091ADF80430CDE710B584B059
:102A200003460124ADF8040003A8ADF80C30ADF85E
:102A30000E4001F0BBFD214603A801F0A1FE204697
:102A400003F02AF9002103A801F09AFE204603F0C2
:102A500023F9214603A801F093FE04B010BD00BF86
:102A6000F0B53F4C8BB0A06303781BB1002528461E
:102A70000BB0F0BD0022079301233A49201D61608D
:102A80000321C4E902230822202306910A21C4E974
:102A9000042340224FF4C073089102A9C4E906231D
:102AA00000224FF40063C4E908234FF4805200234E
:102AB000C4E90A2302220723CDE9022304220823C2
:102AC000CDE9042309F0DEFF0546002844D1102398
:102AD00001220126002702A90190201DCDE9022331
:102AE0004FF48052CDE9046709F0F6FF642003F04B
:102AF000F9FA02A94FF48052201DCDE9046702269D
:102B00001027CDE9026709F0E7FF0322102302A98D
:102B1000201DCDE9022300230422CDE904234FF434
:102B2000805209F0D9FF40F23223042202A9019316
:102B30001023201DCDE90223019A012305924FF4B1
:102B40008052049309F0C8FF40F60601201D09F0E9
:102B5000E3FF28460BB0F0BD012528460BB0F0BDC1
:102B6000B8ED0024404100526A4A00232DE9F043A9
:102B700015688FB00A9315B10FB0BDE8F083664BAE
:102B800001210C244FF0030811600026D3F8D42053
:102B90000327624842F48052DFF89891C3F8D420AA
:102BA000D3F8D42002F480520092009AD3F8E020A7
:102BB00042F01002C3F8E020D3F8E02002F0100247
:102BC0000192019AD3F8E02042F04002C3F8E020DD
:102BD000D3F8E02002F040020292029AD3F8E020FB
:102BE00042F00802C3F8E020D3F8E02002F0080227
:102BF0000392039AD3F8E02042F48072C3F8E020F5
:102C0000D3F8E02002F480720492049AD3F8E02012
:102C100042F08002C3F8E020D3F8E02002F0800206
:102C20000592059AD3F8E02042F02002C3F8E02094
:102C3000D3F8E02002F020020692069AD3F8E020B2
:102C400042F00402C3F8E0204FF68372D3F8E0307C
:102C50000C9403F00403CDF82C800793022307990A
:102C600008A9CDE9082305F0C3F848F2371202237A
:102C700008A92B480C94CDE90823CDE90A6705F093
:102C8000B7F84CF20372022308A926480C94CDE948
:102C90000823CDE90A6705F0ABF840F2FF62022392
:102CA00008A921480C94CDE90823CDE90A6705F06D
:102CB0009FF84FF60C72022308A91C480C94CDE92A
:102CC0000823CDE90A6705F093F84FF63F02022387
:102CD00008A917480C94CDE90823CDE90A6705F047
:102CE00087F8D9F83800013003F082F9D9F8383084
:102CF0000646581C03F084F90223089008A93046C0
:102D00000A950993CDE90B8405F072F80FB0BDE880
:102D1000F08300BFB4ED00240044025800100258B4
:102D200000180258000C025800200258001C0258DB
:102D300000140258B8ED00242DE9F04FDFF810849C
:102D400006460D46144608F114002DED028B89B09D
:102D500000AF02F049FFD8F8143073B3D8F8183038
:102D6000D8F80490002B43690BBF4FF0080A4FF0CE
:102D7000100A4FF0020B4FF0040BB9F1000F2AD0EC
:102D8000A200EA46012B02F1070222F00702ADEB96
:102D9000020D6846ADEB020D694600F03F81022B43
:102DA00000F0D680002B6FD02246C847D546243786
:102DB000BD46BDEC028BBDE8F08FD8F81830002B73
:102DC000F5D0D8F804904FF0080A4FF0020B436991
:102DD000B9F1000FD4D1FB61D8F80030BB61002BF2
:102DE000E5D0D54802F048FF6B46BBF1020F786191
:102DF00008EE103AFB6900F083816A465146A2EB67
:102E0000C40295466200EA46B2FBFBF2AAEBC4009C
:102E100085460AEB8200EE46F861ADEB010DF869DC
:102E20000EEB820CC7F810C0EC46ADEB010D00EBC9
:102E30008201CCF80400CCF8081001EB820138695B
:102E4000E946CCF80C1000EB8201CCF800A001EBB5
:102E50008202C9E900E0C9E90212012B00F0648393
:102E6000022B00F06C82002B00F080816208494642
:102E70006046BB69984718EE103A24379D46BD4618
:102E8000BDEC028BBDE8F08F002C8DD01A46D8ED3A
:102E90000B6A9FEDB27A8446331D36F922E00CF1BD
:102EA000080C07EE90EA33F922E00232F8EEE77AF6
:102EB000944267EE877A67EEA67A4CED027A07EEC7
:102EC00090EAF8EEE77A67EE877A67EEA67A4CED3D
:102ED000017AE2D8F9612246C847984ED8ED046AD3
:102EE0000020F9692B1D9FED9E7A9FED9E6ADFED14
:102EF0009E5A22E0F4EEC67AF1EE10FAC0F2C884CF
:102F000047F6FE72D1ED017A45F8202066EEA77AE9
:102F1000F4EEC77AF1EE10FA40F2F080F4EEC67AE1
:102F2000F1EE10FAC0F2D58447F6FE7243F8202085
:102F30000230083184427FF639AFD1ED007A66EE77
:102F4000A77AF4EEC77AF1EE10FAD3D83246D9E771
:102F5000002C3FF429AFD8ED0B6A84469FED787AB8
:102F60000022331D8E4656F822100CF1080C07EE95
:102F7000901A53F822100232F8EEE77A944267EE84
:102F8000877A67EEA67A4CED027A07EE901AF8EE91
:102F9000E77A67EE877A67EEA67A4CED017AE2D897
:102FA00071462246C7F81CE0C847664ED8ED046A51
:102FB0000020F9692B1D9FED6A7A9FED6A6ADFF8A0
:102FC00094C120E0F4EEC67AF1EE10FAC0F27984F2
:102FD0003246D1ED017A45F8202066EEA77AF4EE6C
:102FE000C77AF1EE10FA40F28780F4EEC67AF1EE7D
:102FF00010FAC0F25E84324643F8202002300831D5
:1030000084427FF6D3AED1ED007A66EEA77AF4EE75
:10301000C77AF1EE10FAD5D86246DAE7002C3FF411
:10302000C3AED8ED0B6A86469FED477A4FF0000C91
:10303000331D56F82C200EF1080E82F40002A2F582
:10304000000207EE902A53F82C200CF1020CF8EE47
:10305000E77A82F400026445A2F5000267EE877AFF
:1030600067EEA67A4EED027A07EE902AF8EEE77A3E
:1030700067EE877A67EEA67A4EED017AD9D8F961C4
:103080002246C847314ED8ED046A0020F9692B1D4D
:103090009FED337A9FED336ADFF8BCC01FE0F4EE9A
:1030A000C67AF1EE10FAC0F2FC833246D1ED017A15
:1030B00045F8202066EEA77AF4EEC77AF1EE10FA12
:1030C00018D9F4EEC67AF1EE10FAC0F2DA8332467D
:1030D00043F820200230083184427FF667AED1EDFC
:1030E000007A66EEA77AF4EEC77AF1EE10FAD6D837
:1030F0006246DBE76246EBE762467DE7324615E76C
:10310000A100D6466208073121F00701ADEB010DA1
:10311000EA46ADEB010D6946ADEB0E0D0AEB820000
:10312000EC46ADEB0E0D01EB8202F861E946CCE90D
:1031300000A0C9E9001290E60CEE00240280FFFF17
:10314000000000300082FF7F0000003482FF7F001B
:10315000F4ED0024007E00807E0080FF0000003837
:1031600004FF7FBF04FF7F3F00FEFF46002C00F0FE
:10317000C982BBF1020FD8F8202000F0FA827969E9
:10318000C7F8049002EB810E5FED0C5A8A00DCF860
:1031900008100EF104007A611A46DCF80C303B612D
:1031A000331DD7F810903D61FD69C7E902CB8C460D
:1031B000834636F92210D8ED0B7A06EE101A33F951
:1031C000221006EE901A3EF92210B8EEC66A07EEFB
:1031D000101AF8EEE66A3BF92210B8EEC77A26EE2E
:1031E000256A66EEA56A27EE257A26EE276A66EE40
:1031F000A76A27EE277A07EE901A51080232F8EEF6
:10320000E77A0AEB8100944280ED006A05EB8100C9
:1032100067EEA57AC0ED006A0CEB810009EB810135
:1032200080ED007A98ED0B7A67EE877AC1ED007A2F
:10323000BFD8D7F804903D69D7E902CB6046620851
:10324000BB6949469847D8F828307A69D8ED046AAE
:103250001A441FED3D7A1FED3D6A2B1D904602F189
:10326000040A5FED3F5A0022A84ED9E900EC51E074
:10327000F4EEC67AF1EE10FAC0F2C78247F6FE709D
:1032800045F822000CEB0100D0ED007A66EEA77A3B
:10329000F4EEC77AF1EE10FA4BD9F4EEC67AF1EEFD
:1032A00010FAC0F2BA8247F6FE70BBF1020F43F883
:1032B00022002BD0D9F808000844D0ED007A66EE41
:1032C000A77AF4EEC77AF1EE10FA36D9F4EEC67AA0
:1032D000F1EE10FAC0F2CD8247F6FE7048F82200F7
:1032E000D9F80C000144D1ED007A66EEA77AF4EE2D
:1032F000C77AF1EE10FA1ED9F4EEC67AF1EE10FAA2
:10330000C0F2AF8247F6FE714AF8221002329442B0
:103310007FF6B1AD51080EEB81008900D0ED007A47
:1033200066EEA77AF4EEC77AF1EE10FAA0D830462E
:10333000A6E73046B9E73146E6E73046CEE7002C4F
:1033400000F0E081BBF1020FD8F8203000F0E181FD
:103350007A69DCF8081003EB820EC7F8049093003A
:10336000DFED6B5A0EF1040000227B61DCF80C30BB
:103370003B61331DD7F810903D61FD69C7E902CB71
:103380008C46834656F82210D8ED0B7A07EE101AB9
:1033900053F82210B8EEC76A07EE101A5EF8221032
:1033A000F8EEC76A07EE101A26EE256A5BF82210BF
:1033B000B8EEC77A66EEA56A26EE276A27EE257A6A
:1033C00066EEA76A27EE277A07EE901A51080232B6
:1033D000F8EEE77A0AEB8100944280ED006A05EB93
:1033E000810067EEA57AC0ED006A0CEB810009EB65
:1033F000810180ED007A98ED0B7A67EE877AC1ED56
:10340000007ABFD8D7F804903D69D7E902CB60466F
:103410006208BB6949469847D8F828307A69D8EDE0
:10342000046A1A449FED3E7A9FED3E6A131D924650
:10343000DFF8E4C00022FB612B1D364ED9E9008E77
:103440004EE0F4EEC67AF1EE10FAC0F2FC8130469E
:1034500045F822000EEB0100D0ED007A66EEA77A67
:10346000F4EEC77AF1EE10FA49D9F4EEC67AF1EE2D
:1034700010FAC0F2EF813046BBF1020F43F8220090
:103480002AD0D9F808000844D0ED007A66EEA77A71
:10349000F4EEC77AF1EE10FA35D9F4EEC67AF1EE11
:1034A00010FAC0F2C98130464AF82200D9F80C005F
:1034B0000144D1ED007A66EEA77AF4EEC77AF1EE18
:1034C00010FA1ED9F4EEC67AF1EE10FAC0F2AD8110
:1034D0003146F86940F82210023294427FF6CBACB4
:1034E000510808EB81008900D0ED007A66EEA77ADA
:1034F000F4EEC77AF1EE10FAA3D86046A8E760466A
:10350000BAE76146E5E76046CEE700BF0280FFFF0D
:10351000000000300082FF7F007E00800000003449
:1035200004FF7FBF04FF7F3F002C00F0EB807A692F
:103530000021D8F82030C7F8109003EB820ED7F89E
:103540001C909300FD610EF104021FED0C6A7B617B
:10355000331D154656F821204808D8ED0B6ABBF1FB
:10356000020F82F40002A2F5000207EE902A53F83F
:10357000212082F40002B8EEE77AA2F5000227EEDD
:10358000067A07EE902A0AEB8002F8EEE77A27EE39
:10359000267A67EE867A82ED007A09EB80024FEA9E
:1035A000800067EEA67AC2ED007A27D05EF821206F
:1035B00082F40002A2F5000207EE902A55F82120BD
:1035C00082F40002B8EEE77AA2F5000227EE067A4E
:1035D00007EE902ADCF80820F8EEE77A024427EE9E
:1035E000267A67EE867A82ED007A98ED0B7ADCF81F
:1035F0000C2067EE877A0244C2ED007A02318C42D9
:10360000A8D8D7F8109060466208BB694946FD69A2
:103610009847D8F828307A69D8ED046A1A441FED23
:10362000407A1FED406A131D9246DFF8C4C20022A3
:10363000FB612B1DAB4ED9E9008E4EE0F4EEC67A4D
:10364000F1EE10FAC0F2C580304645F822000EEBCC
:103650000100D0ED007A66EEA77AF4EEC77AF1EEBB
:1036600010FA49D9F4EEC67AF1EE10FAC0F2BF8032
:103670003046BBF1020F43F822002AD0D9F80800E7
:103680000844D0ED007A66EEA77AF4EEC77AF1EE40
:1036900010FA35D9F4EEC67AF1EE10FAC0F2AE8027
:1036A00030464AF82200D9F80C000144D1ED007AE6
:1036B00066EEA77AF4EEC77AF1EE10FA1ED9F4EEB0
:1036C000C67AF1EE10FAC0F28B803146F86940F804
:1036D0002210023294427FF6CEAB510808EB8100F3
:1036E0008900D0ED007A66EEA77AF4EEC77AF1EEA3
:1036F00010FAA3D86046A8E76046BAE76146E5E756
:103700006046CEE7224649466046BB699847FFF7C8
:10371000B2BBC7F810B0002298ED0B6A331DDFED85
:10372000726AD7F81CB0786956F8221007EE901A22
:1037300053F82210B8EEE77A07EE901A51080232D9
:10374000F8EEE77A27EE267A0AEB810E94420BEB2D
:10375000810167EEA67A27EE067A67EE867A8EED0D
:10376000007AC1ED007ADFD88300D7F810B07B6112
:103770004DE61A46C7F810B098ED0B6A331DDFED21
:103780005B6AD7F81CB0786936F9221007EE101A78
:1037900033F9221007EE901AB8EEC77A51080232B8
:1037A000F8EEE77A27EE267A0AEB810E94420BEBCD
:1037B000810167EEA67A27EE067A67EE867A8EEDAD
:1037C000007AC1ED007ADFD88300D7F810B07B61B2
:1037D00034E5F0EE675AFEEEE45A15EE900A34E74F
:1037E000F0EE675AFEEEE45A15EE901A6EE7F0EE30
:1037F000675AFEEEE45A15EE900A3AE7F0EE675A81
:10380000FEEEE45A15EE900A4BE767EEA57AFDEE60
:10381000E77A17EE900A00B232E567EEA57AFDEE80
:10382000E77A17EE900A00B23FE5F0EE675AFEEE37
:10383000E05A15EE901A4CE6F0EE675AFEEEE05AAA
:1038400015EE900A30E6F0EE675AFEEEE05A15EEFD
:10385000900AFDE5F0EE675AFEEEE05A15EE900A8A
:103860000AE667EEA57AFDEEE77A17EE901A09B23E
:103870004AE567EEA57AFDEEE77A17EE900A00B208
:103880002CE5F0EE675AFEEEE45A15EE902A1FE49E
:1038900067EEA57AFDEEE77A17EE902A12B2FFF7EF
:1038A00031BBF0EE675AFEEEE45A15EE902AFFF7B0
:1038B000FDBBF0EE675AFEEEE05A15EE902AFFF7D8
:1038C0009BBBF0EE675AFEEEE05A15EE902AFFF72A
:1038D00080BB67EEA57AFDEEE77A17EE902A12B26A
:1038E000FFF724BB82FF7F0000000030000000389B
:1038F0007E0080FF30B5154C154685B0046004F19C
:10390000080C01AB07C98CE80700D4ED047AF5EE8A
:10391000C07A83E80700F1EE10FA14DDF7EE006AD2
:1039200086EEA77A84ED0B7A6DB1204640F8145FDD
:1039300002F05AF9064903690020064AE161626211
:10394000E36005B030BD012005B030BDF4ED0024CA
:10395000082100300801003000680830704700BFBF
:10396000B1F5807F03680A4628BF4FF48072B1F535
:10397000807F9A6094BF0020012070470068143057
:1039800002F068B930B5046883B00D46A3694BB145
:10399000A3680020A26A216A9B00009004F118002D
:1039A00002F024F9A3680748626A9B00E16900906D
:1039B00004F1140002F01AF90020C4E9005003B029
:1039C00030BD00BF392D0008024B0022C3E905229B
:1039D000704700BFF4ED0024F6EE006A4FF0000CD3
:1039E00060EE207A0160B7EE007A0021C0F80CC0CA
:1039F00067EEA67A80ED020A80ED047AC0F814C062
:103A0000C7EE276A027643768176C0ED070AC0EDDD
:103A1000016A70470268037E128807EE902AFBEE67
:103A2000C87A1BB1B7EE007A77EE677AD0ED056AF7
:103A300090ED047A77EEE67A437E67EE877A0BB1F3
:103A4000F1EE677A90ED030A90ED017A77EEC07A95
:103A5000A7EE270A80ED030A704700BF837E80ED42
:103A6000020A73B9D0ED077A27EE800AF6EE007AE3
:103A7000B7EE007A20EE270AC7EE007AC0ED017A91
:103A80007047DFED017AEFE76F12033B10B584B0AA
:103A900004461030ADF804304FF48073ADF80820C0
:103AA000ADF80C10828001806382E3828DED000A04
:103AB00000F07CFD04F1140000F078FD9DED000A9B
:103AC0000199204600F092F800224FF6FF73E26160
:103AD000238304B010BD00BF70B5067E04461030CD
:103AE000760000F03FFE657E034676B26D0004F17D
:103AF00014001E436DB2267600F034FE05432046C6
:103B0000657600F091F8237E002203F00303E26162
:103B1000022B06D0627E02F00302022A00D133B1EA
:103B200070BD637E9B07FBD10123E36170BD4FF045
:103B3000FF33E36170BD00BF30B52DED028B83B064
:103B4000044601231546ADF804101730BDF80410E3
:103B5000B0EE408A0180637600F028FDB5FA85F367
:103B6000002200215B092575A16084ED048AA575FA
:103B70006375C4E9002203B0BDEC028B30BD00BF09
:103B800020EE007ADFED067A27EE000A60EE277A53
:103B900080ED020AFCEEE77AC0ED017A704700BFC3
:103BA00000FF7F4790ED046AB7EE007ADFED0E5A12
:103BB0000346D0ED036AC5EE867A77EEA67AF4EE78
:103BC000C77AF1EE10FAC8BF77EEC77A90ED027AA5
:103BD000B4EEE77AC0ED037A1730F1EE10FACCBFFD
:103BE000597D997D00F0CCBD0000F042B7EE007A1F
:103BF0000346012282B0C1F307204FF0000CC7EE4C
:103C0000007AADF80410C3F80CC04FF0000C9870A7
:103C100098181A70597083F803C09A809A71C3ED8E
:103C2000027A02B000F0C2BC38B544790546837907
:103C30000130640064B2B3B100F094FDB0FA80F3D7
:103C40005B092343DBB2A3F17F026B71012A0ED91A
:103C5000FF2B07D1D5ED037A95ED027A77EE877ABF
:103C6000C5ED037A38BD00F07DFD43B2E9E70023DE
:103C7000EB6038BD82B04FF0000C0323ADF80410A8
:103C8000BDF8042080F810C00280438002B0704765
:103C90002DE9F04F03700D460023D44CD4498DB06C
:103CA000426006468B611746C4F82811A4F8093112
:103CB000C4F8FD30C4F80131C4F80531C4F80C3142
:103CC000C1E90033C1E90233C1E904333831CDE938
:103CD0000133CDE90333CDE90533CDE90733CDE930
:103CE0000933C4E94433C4E94633C4F82C11C4E9A8
:103CF000483384F8FC2084F80C324368002B00F031
:103D0000E781EB68A44628686968AA68ACE80F00F8
:103D10002B7C8CF800302B7C84F8FD302B7C002B26
:103D200040F0FB817368012B40F29A81D5F8113085
:103D3000D5F81D20D5F81500D5F81910C4F81130A4
:103D4000AC4B58609960DA6095F821201A7495F8A8
:103D5000213084F8FE3095F82130002B40F0E181CD
:103D60007368022B40F27C81D5F82230D5F82E20E2
:103D7000D5F82600D5F82A10C4F822309E4B58609A
:103D80009960DA6095F832201A7495F8323084F828
:103D9000FF3095F83230002B40F0C7817368032B59
:103DA00040F25E81D5F83330D5F83F20D5F83700A2
:103DB000D5F83B10C4F83330904B58609960DA6006
:103DC00095F843201A7495F8433084F8003195F83B
:103DD0004330002B40F0AD817368042B40F24081EA
:103DE0002B6D686CA96CEA6CDFF82CC2ACE80F0094
:103DF00095F854308CF8003095F8543084F801313F
:103E000095F8543013B1012384F80C327368052BF4
:103E100040F22681D5F85530D5F86120D5F8590003
:103E2000D5F85D10C4F85530754B58609960DA606C
:103E300095F865201A7495F8653084F8023195F884
:103E4000653013B1012384F80C327368062B40F2FD
:103E50000781D5F86630D5F87220D5F86A00D5F814
:103E60006E10C4F86630674B58609960DA6095F858
:103E700076201A7495F8763084F8033195F8763008
:103E800013B1012384F80C327368072B40F2E880E9
:103E9000D5F87730D5F88320D5F87B00D5F87F109A
:103EA000C4F87730584B58609960DA6095F88720ED
:103EB0001A7495F8873084F8043195F88730002B10
:103EC00040F0AC817368082B40F2CA80D5F894307A
:103ED000D5F88800D5F88C10D5F89020DFF83CC1D3
:103EE000ACE80F0095F898308CF8003095F89830D1
:103EF00084F8053195F89830002B40F09381736871
:103F0000092B40F2AD80D5F89930D5F8A520D5F829
:103F10009D00D5F8A110C4F899303C4B58609960C9
:103F2000DA6095F8A9201A7495F8A93084F806315A
:103F300095F8A930002B40F07B8173680A2B40F282
:103F40008F80D5F8AA30D5F8B620D5F8AE00D5F8D0
:103F5000B210C4F8AA302E4B58609960DA6095F818
:103F6000BA201A7495F8BA3084F8073195F8BA3047
:103F7000002B40F0618173680B2B71D9D5F8BB30F1
:103F8000D5F8C720D5F8BF00D5F8C310C4F8BB30AA
:103F9000204B58609960DA6095F8CB201A7495F838
:103FA000CB3084F8083195F8CB30002B40F04881B5
:103FB00073680C2B54D9D5F8D830D5F8CC00D5F887
:103FC000D010D5F8D420DFF858C0ACE80F0095F831
:103FD000DC308CF8003095F8DC3084F8093195F845
:103FE000DC30FBB1012384F80C321BE028EE002406
:103FF0000841003039EE00244AEE00245BEE002434
:104000007DEE00248EEE00249FEE0024C1EE0024FD
:10401000D2EE0024E3EE00246CEE0024B0EE002487
:10402000F4EE002473680D2B1AD9D5F8DD30D5F8DD
:10403000E920D5F8E100D5F8E510C4F8DD30BB4B38
:1040400058609960DA6095F8ED201A7495F8ED30B3
:1040500084F80A3195F8ED3013B1012384F80C325D
:104060004FF48022B24808210023FFB2C4F838314F
:10407000C4F8487184F84431C4E94C020122C4E90F
:104080004F2194F80C12C4E9553399B384F84531A3
:1040900084F84C21C4F85C21337800200021C4E965
:1040A00058018BB30122013B84F86821C4F87821C0
:1040B0000022C4F87421082B28D8DFE813F0C500CB
:1040C000CA00CF00D400D900DE00E300E900F00010
:1040D000D7B2C4F83831964A012184F84431C4F883
:1040E0004871C4E955334FF48023C4E94C230823B5
:1040F000C4E94F13012384F84531002384F84C317F
:104100000323C4F85C31C7E784F86831894802F0BA
:1041100021FC034688B1FFBEFEE7012384F80C3280
:1041200000E6012384F80C321AE6012384F80C32ED
:1041300034E6012384F80C324EE601A97D48019350
:1041400002F066FD0546002870D1022240F2FF739E
:10415000CDE9062300230422CDE9082394F8FC309E
:10416000002B00F0D3804FF0060921E0022B00F075
:104170009D80012B40F0C2809AF80130012B00F0A5
:10418000BF80002B6C4B18BF002304A96948CDE900
:10419000043902F00BF8002840F0BD80013594F896
:1041A000FC30EDB2AB4240F2B180644B53F8259045
:1041B0002FB207EB071704EB070A504600F0F6F999
:1041C00005EB051323441B7C042B7BDC022B00F343
:1041D0008F8000F08B806319002283F8EE20E35D6E
:1041E000002BC3D19AF80130062B00F08380072BF7
:1041F00000F08880022B00F09080032B00F08F806D
:10420000002B00F08E80012B00F08D80042B00F03D
:10421000AF80052B4A4B18BF0023B6E7012384F873
:104220000C324FE6012384F80C3268E6FFBEFEE74D
:10423000012384F80C3280E6012384F80C329AE6DC
:10424000012384F80C32B3E603234022C4E95B3235
:104250005CE707236022C4E95B3257E70F23802223
:10426000C4E95B3252E71F23A022C4E95B324DE769
:104270003F23C022C4E95B3248E77F23E022C4E940
:104280005B3243E7FF234FF48072C4E95B323DE7C2
:1042900040F2FF134FF49072C4E95B3236E740F20C
:1042A000FF334FF4A072C4E95B322FE79AF8013074
:1042B000042B21D0052B27D05BB3012B214B18BF3A
:1042C000002362E703233E1D04EB05084FF0000BBB
:1042D000264488F8EE3030460BF1010B00F066F909
:1042E00098F8EE3004365B45F5DC78E70123EAE721
:1042F0000223E8E7144B48E7144B46E7002344E762
:10430000134B42E7134B40E7134B3EE70DB0BDE8BC
:10431000F08F124B39E7FFBEFEE7114B35E7114B2B
:1043200033E7114B31E7114B2FE700BF05EF0024B6
:104330000020024058EF00240002B025A800010828
:104340000000B84F0008302E0800900C1000C0107C
:104350002000F0148000501D000180210004002A7C
:104360000040C03A0080F03E000021430000524768
:10437000004B0AE70000844B38B5094C40F2FF724D
:104380004FF0011104F59875284602F0EFFB94F800
:10439000FC20D4F828112846BDE8384002F05AB96C
:1043A00028EE0024034B0D29D3F8280198BF00EB19
:1043B0004100704728EE0024214B02689A4200D049
:1043C0007047204B00212048D3F8D82030B542F068
:1043D00020021E4C83B0C4F8940104F5CA75C4E9E8
:1043E0006D11C3F8D8200922D3F8D830284603F03D
:1043F00020030193019B94F80C328B4214BF0B46AF
:104400004FF48073C4F8B0310023C4E9662300225E
:104410004FF48063C4E968234FF400624FF4005303
:10442000C4E96A2302F01AFE08B1FFBEFEE704F5F4
:104430009873C4F87C51C4F8CC3103B030BD00BFD0
:1044400000200240004402584000024028EE0024B0
:10445000014803F07BB900BFBCEF002402682DE9DE
:10446000F84F4C4B9A4201D0BDE8F88F4A4E96F86F
:104470000C32002BF8D096F8FC20002A76D00024CD
:1044800006F10C0906F5867506F1FC07A04613E057
:1044900003F0010117F80FBCA9F1080000F070F952
:1044A000BBF1010F25D896F8FC20013409F1110960
:1044B0000235A3B29A422BD917F8013F002BF4D052
:1044C000D6F8283100212A7833F81400D6F82C3198
:1044D00003EB041323F812002B8801339BB22B80CB
:1044E0005FFA83FA3A789A42D2D88A46A5F80080D1
:1044F000D0E7CAF34001A9F1040000F041F9BBF193
:10450000020FCAF38001CED0484600F039F9CAE75D
:1045100096F80C0209220023204900284FF00000E1
:10452000C6F894114FF48061C6E966234FF4006227
:104530004FF40053C6E96A2314BF00224FF480727F
:10454000C6E9680100231648C6E96C23C6F8B831ED
:1045500002F084FD08B1FFBEFEE796F8FC20D6F815
:1045600028111048BDE8F84F02F074B80920002166
:104570000A4BC6E9660100204FF48061C6F8943109
:10458000C6E968014FF400604FF40051C6E96A01C2
:10459000D8E700BF0020024028EE0024400002407F
:1045A000BCEF002458EF0024704700BF30B583787B
:1045B0008FB00446022B37D0032B33D0012B31D0E0
:1045C00000230A93E378012B2AD0022B28D0002362
:1045D0000B93002320460C9301F00AFD054620466C
:1045E00001F00EFD23780990082B13D8DFE803F0C3
:1045F0001F3245586B7E91A40500594BD3F8E0203B
:1046000042F48072C3F8E020D3F8E03003F4807302
:104610000893089B09A9284603F0EAFB0FB030BDB8
:104620000B93D6E70A93CDE711230A93CAE74C4BC5
:1046300009A92846D3F8E02042F00102C3F8E0209F
:10464000D3F8E03003F001030093009B03F0D0FBAC
:104650000FB030BD424B09A92846D3F8E02042F004
:104660000202C3F8E020D3F8E03003F00203019324
:10467000019B03F0BDFB0FB030BD394B09A92846A3
:10468000D3F8E02042F00402C3F8E020D3F8E03091
:1046900003F004030293029B03F0AAFB0FB030BDAA
:1046A0002F4B09A92846D3F8E02042F00802C3F8AE
:1046B000E020D3F8E03003F008030393039B03F0FA
:1046C00097FB0FB030BD264B09A92846D3F8E02050
:1046D00042F01002C3F8E020D3F8E03003F01003FA
:1046E0000493049B03F084FB0FB030BD1C4B09A95D
:1046F0002846D3F8E02042F02002C3F8E020D3F8A7
:10470000E03003F020030593059B03F071FB0FB02D
:1047100030BD134B09A92846D3F8E02042F04002EF
:10472000C3F8E020D3F8E03003F040030693069B83
:1047300003F05EFB0FB030BD094B09A92846D3F842
:10474000E02042F08002C3F8E020D3F8E03003F02C
:1047500080030793079B03F04BFB0FB030BD00BFF6
:104760000044025838B5054601F042FC044628468C
:1047700001F046FC01462046BDE8384003F040BD4C
:1047800070B506460D4601F033FC0446304601F094
:1047900037FC2A1E0146204618BF0122BDE87040A2
:1047A00003F034BD2DE9F84F04460E4617469846EF
:1047B00000F18C05284605F053FA2028FAD120682C
:1047C0002E4B0128636106D0022843D000283ED03A
:1047D0000120BDE8F88F2423A3614023002004F1C9
:1047E0001409E3614FF480632062A0636362C4E94B
:1047F0000A00C4E90C00C4E91000484602F02EFC8F
:1048000008B1FFBEFEE7C4F8C490E564EFF3108A78
:1048100072B6DFF8709094F900300A9ADFF868B049
:1048200089F80030CBF80020E3680B9A144C226022
:104830009BB9710043463A46284689B203F0AAFF65
:1048400090B9BAF1000FC4D162B6BDE8F88F222347
:10485000A361C2E74A23A361BFE74246394628461F
:1048600004F00AF90028ECD0FF23012089F8003079
:104870000023CBF800302360E3E700BFA000024034
:1048800040F000243CF0002438F000242DE9F84FDB
:1048900004460E461746984600F18C05284605F05A
:1048A000DFF92028FAD120682D4B0128636106D05A
:1048B000022842D000283DD00120BDE8F88F2323F4
:1048C000A36100204FF4806304F11409A0636362C4
:1048D000C4E90700C4E90A00C4E90C00C4E91000F7
:1048E000484602F0BBFB08B1FFBEFEE7C4F8C89023
:1048F000E564EFF3108A72B6DFF86C9094F900303B
:104900000A9ADFF868B089F80030CBF80020E36835
:104910000B9A144C22609BB9710043463A462846D4
:1049200089B203F0F1FF90B9BAF1000FC5D162B6B8
:10493000BDE8F88F2123A361C3E74923A361C0E742
:1049400042463946284604F003F90028ECD0FF23FC
:10495000012089F800300023CBF800302360E3E722
:10496000A000024040F000243CF0002438F0002475
:104970000023122270B586B0CDE9022304930368A8
:10498000032B01D804230593061D841D304601F036
:104990002FFB0546304601F033FB034601A92846AC
:1049A000019303F025FA204601F022FB034620463E
:1049B0001C4601F025FB01A903462046019303F0A4
:1049C00017FA06B070BD00BF634A0368934210B582
:1049D0008CB028D0614A934258D0614A934200F08B
:1049E0009480604A934201D00CB010BD5E4C5F4889
:1049F000D4F8E03043F00203C4F8E030D4F8E030FB
:104A000003F002030A930A9BFFF7B2FFD4F8F430D5
:104A100043F08003C4F8F430D4F8F43003F080039A
:104A20000B930B9BE0E7504C5148D4F8E03043F037
:104A30000203C4F8E030D4F8E03003F0020301933D
:104A4000019BFFF795FFD4F8E83000221F2043F4C4
:104A500000131146C4F8E830D4F8E83003F400132A
:104A60000293029BD4F8D83043F00103C4F8D83045
:104A7000D4F8D83003F001030393039B02F03CF910
:104A80001F200CB0BDE8104002F074B9364C394814
:104A9000D4F8E03043F08003C4F8E030D4F8E030DC
:104AA00003F080030493049BD4F8E03043F0020346
:104AB000C4F8E030D4F8E03003F002030593059B1E
:104AC000FFF756FFD4F8E8300022212043F480039A
:104AD0001146C4F8E830D4F8E83003F480030693B4
:104AE000069BD4F8D83043F00103C4F8D830D4F88A
:104AF000D83003F001030793079B02F0FDF8212053
:104B00000CB0BDE8104002F035B91B48FFF730FF8C
:104B1000154B00224820D3F8E840114644F4000425
:104B2000C3F8E840D3F8E84004F400040894089C73
:104B3000D3F8D84044F00104C3F8D840D3F8D830B3
:104B400003F001030993099B02F0D6F848200CB04A
:104B5000BDE8104002F00EB900540040005800407B
:104B6000005C0040001C005800440258CCF20024B5
:104B700044F000241CF10024F4F100242DE9F0435A
:104B80001A4B87B000254FF010099E46EC46184B93
:104B9000FF22E04667461A700EF118060EF1300447
:104BA000CDE90055CDE90255ADF80090BCE80F0005
:104BB000CDE90455AEE80F009CE803000095ADF880
:104BC00000908EE80300B8E80F000FC69CE80300D1
:104BD0000095ADF8009086E803000FCF0FC49CE865
:104BE000030084E8030007B0BDE8F083140000244C
:104BF0003CF0002410B5EFF3108472B6084B1A781D
:104C0000120602D504B962B610BD1B78D822054839
:104C10005BB202FB0300143002F098FDF2E700BF24
:104C20003CF0002444F00024014803F0FFBF00BF23
:104C3000D0F00024014803F0F9BF00BFA8F1002420
:104C4000014803F0F3BF00BF80F200242DE9F041DA
:104C500082B0EFF3108772B61C4AFF211C4C136818
:104C6000217023B1002111601A4A106898472378F7
:104C70001B0617D5DFF864800025174E444662688E
:104C80005AB16369304693B923690193E36800938D
:104C900023892188FFF786FD90B101351834D83675
:104CA000032DECD107B962B602B0BDE8F081D4E9BA
:104CB0000331CDE9003123892188FFF7E7FDEBE7D8
:104CC00005EB450508EBC5056860EBE738F0002407
:104CD0003CF0002440F0002444F0002414000024A0
:104CE0002DE9F04182B0EFF3108772B61C4AFF2124
:104CF0001C4C1368217023B1002111601A4A1068FE
:104D0000984723781B0617D5DFF864800025174ED7
:104D1000444662685AB16369304693B92369019386
:104D2000E368009323892188FFF73CFD90B10135AA
:104D30001834D836032DECD107B962B602B0BDE8FD
:104D4000F081D4E90331CDE9003123892188FFF7CF
:104D50009DFDEBE705EB450508EBC5056860EBE756
:104D600038F000243CF0002440F0002444F00024FB
:104D7000140000242DE9F04182B0EFF3108772B6E1
:104D80001C4AFF211C4C1368217023B100211160C3
:104D90001A4A1068984723781B0617D5DFF86480F5
:104DA0000025174E444662685AB16369304693B98C
:104DB00023690193E368009323892188FFF7F2FCBC
:104DC00090B101351834D836032DECD107B962B64D
:104DD00002B0BDE8F081D4E90331CDE90031238987
:104DE0002188FFF753FDEBE705EB450508EBC5050B
:104DF0006860EBE738F000243CF0002440F0002429
:104E000044F00024140000242DE9F04182B0EFF3B7
:104E1000108772B61C4AFF211C4C1368217023B105
:104E2000002111601A4A1068984723781B0617D58D
:104E3000DFF864800025174E444662685AB1636902
:104E4000304693B923690193E3680093238921884D
:104E5000FFF7A8FC90B101351834D836032DECD1FA
:104E600007B962B602B0BDE8F081D4E90331CDE9FB
:104E7000003123892188FFF709FDEBE705EB4505A4
:104E800008EBC5056860EBE738F000243CF000242F
:104E900040F0002444F00024140000242DE9F041E7
:104EA00082B0EFF3108772B603F066FA1D4A1E4C0B
:104EB000FF21136821702BB10021116001211B4AD1
:104EC0001068984723781B0617D5DFF868800025FF
:104ED000174E444662685AB16369304693B92369F4
:104EE0000193E368009323892188FFF75BFC90B16D
:104EF00001351834D836032DECD107B962B602B0AB
:104F0000BDE8F081D4E90331CDE90031238921885E
:104F1000FFF7BCFCEBE705EB450508EBC505686052
:104F2000EBE700BF38F000243CF0002440F0002400
:104F300044F00024140000242DE9F0430F68D82425
:104F40003F4D85B007FB04F4032F05EB040303601A
:104F500040DCCB680E46012B3CD84DD04FF0D80832
:104F6000B646DFF8FC9008FB0758BEE80F00C446C1
:104F7000ACE80F00DEF800300DF1100ECCF8003078
:104F8000D8F808C099E80F000EE90F000EEB870370
:104F9000BCF1010F53F8103CC8F88C3031D0BCF193
:104FA000020F42D0BCF1000F35D0317C8C34D823B5
:104FB000002201202C4403FB07534900C3E92602C9
:104FC000C3F894102046C3E92822C3E92A2203F03B
:104FD000D3F918B1012005B0BDE8F08301462046A1
:104FE00004F042FE0028F5D10146204604F066FE9A
:104FF000003818BF0120EEE70B7C103B672BADD9C2
:10500000E8E700F0A3FF0F4B98420CBF0E4B0F4B8D
:10501000C8F89030C9E700F099FF0A4B98420CBFDE
:105020000B4B0C4BC8F89030BFE700F08FFF054BDF
:1050300098420CBF084B094BC8F89030B5E700BF49
:1050400044F00024000E27072D0FB0303211D0207D
:105050005F4390608A62E030200BA0101A09801034
:1050600014000108006870472DE9F041D0F8008075
:1050700082B00D4617461E4608F18C04204604F007
:10508000EFFD2028FAD1D8F80C3073B96D00204616
:10509000089C33463A46A9B2009403F0C3F900389D
:1050A00018BF012002B0BDE8F081089B32463946A6
:1050B000204603F08BFAF2E700682DE9F04104681E
:1050C000032CDDE9067821D0124D2D782D0617D45A
:1050D0008E469C46EFF3108372B60F4D04EB4404EA
:1050E000002025F8341005EBC4046260A4F808C061
:1050F0006061C4E903780BB962B61846BDE8F08177
:10510000CDE90678BDE8F041FFF74CBB0120BDE8D2
:10511000F08100BF3CF0002414000024044B102256
:105120001A7483F8E82083F8C02183F89822704726
:1051300044F00024000000002DE9F04FC84C034665
:105140002DED048B2046ABB023655D781E7804F00E
:1051500035FFE0B9012D4FF00107C24A14BF4FF4EB
:1051600080134FF40003E0602260C4E9017793FAF2
:10517000A3F3B3FA83F34FF48078013BC4F81480AF
:10518000C4E907002046236104F0ACFE28B10120E9
:105190002BB0BDEC048BBDE8F08F662313901B9001
:1051A00041F288320EA90E93CDE91480CDE91600A4
:1051B000CDE91900204604F01FFF0028E7D199230C
:1051C00041F288320EA920460E9304F015FF002804
:1051D000DDD14FF0050A4FF08079249041F28833F9
:1051E000219008AA29901CA9CDF870A0CDF8949020
:1051F0009FED917B9FED929B9FED938BCDE922805C
:10520000CDE9270020468DED087B8DED0A9B8DEDC5
:105210000C8B05F05DF80028B9D11897ADF808009F
:1052200013901B90CDE91480CDE91609CDE9190042
:10523000002D00F0BA80F023ADF80830C02341F211
:1052400088320EA986480E9304F0D6FE00289ED11F
:1052500041F28832824802A904F038FF002896D132
:105260004FF480744FF005084FF080754FF0000A3E
:105270004FF0010B2190299041F2883308AA1CA914
:105280002294CDF8708025959FED6D9B9FED6E8BE0
:10529000CDE92300CDE927007148CDE908AB8DEDBC
:1052A0000A9B8DED0C8B05F013F800287FF46FAF8F
:1052B000012706238DF8070041F2883213901CA9BC
:1052C0001B90219029900E971C93CDE91440CDE9B5
:1052D0001605CDE91900CDE92240CDE92400CDE93C
:1052E00027005F4804F088FE00287FF450AF41F2A9
:1052F000883308AA1CA95A48CDF8708025959FEDDF
:10530000547B8DED0A9B8DED0C8B8DED087B04F0AD
:10531000DFFF00287FF43BAF41F288320EA95048EE
:1053200004F06AFE00287FF432AF402341F2883255
:105330000DF107014A488DF8073004F0C7FE002838
:105340007FF425AF02AA41F288330EA94448CDF874
:10535000388017959FED407B8DED049B8DED068B7E
:105360008DED027B04F0B4FF00287FF410AF219094
:1053700008AA299041F288331CA92294CDF87080A4
:105380002595CDE92300CDE927003548CDE908ABC7
:105390008DED0A9B8DED0C8B04F09AFF00287FF4B5
:1053A000F6AE002E60D00020F2E6612341F2883292
:1053B0000EA920460E9304F01FFE00287FF4E7AEEE
:1053C00041F2883202A9204604F0FEFE00287FF454
:1053D000DEAEBDF8083041F2883221901CA923F0DE
:1053E0007803299043F04003ADF808300623CDE957
:1053F0002280CDE92400CDE9270020461C9304F04B
:10540000FBFD00287FF4C3AE20460225022441F2B2
:10541000883308AA1CA9CDF870A0CDF894908DED22
:105420000A9B8DED0C8BCDE9084504F051FF002857
:105430003FF404AFABE600BF000000000100000035
:10544000100000000100000000000000000040000B
:1054500002000000020000004000000040000000C8
:10546000A4F3002400500052EB204FF4807400237A
:1054700000251C904FF4005022944FF440641F907C
:10548000A02020930EAA23944FF4404427931CA9F4
:1054900028934FF080531E900620249400242993D3
:1054A0004FF04073219005482593CDE90E4504F057
:1054B00087FF003818BF01206AE600BFA4F300246C
:1054C0003E4B02682DE9F0479A428CB04FF0000540
:1054D000CDE90755CDE909550B9502D00CB0BDE8D3
:1054E000F087374B0226374905AFD3F8D420B146B1
:1054F000DFF8D4A04FF0030842F48042C3F8D42070
:10550000D3F8D42002F480420092009AD3F8E0202D
:1055100042F04002C3F8E020D3F8E02002F040025D
:105520000192019AD3F8E02042F02002C3F8E02073
:10553000D3F8E02002F020020292029AD3F8E02091
:1055400042F01002C3F8E020D3F8E02002F010028D
:105550000392039AD3F8E02042F00202C3F8E0205D
:10556000D3F8E03003F002030493049B03C90590D1
:10557000ADF81810DAF8504034440236204600F0F6
:1055800037FD034620461C4600F03AFD17F8013B64
:1055900007A907902046CDE90895CDE90A8302F0D6
:1055A00027FC0E2EE6D100225C20114601F0A4FB60
:1055B0005C2001F0DFFB0CB0BDE8F087005000522A
:1055C00000440258E8000108A4F30024124B0268CA
:1055D0009A4200D07047114AD2F8D43070B523F403
:1055E000804302250E4EC2F8D430346D2C4402356F
:1055F000204600F0FDFC034620461C4600F000FD5E
:105600000146204602F034FD0E2DEED15C20BDE8AF
:10561000704001F0BDBB00BF005000520044025872
:10562000A4F30024014804F057BF00BFA4F30024F2
:1056300038B5036871B9026A00F1280500F5AC7449
:10564000012A0CBF002140218BBB1D4B5722C0F803
:1056500058310DE0426A00F1C00500F5E874012AF6
:105660000CBF00214021EBB1164B5A22C0F8D031BB
:1056700000232046C4E901214FF480524FF4806199
:10568000636262614FF48042C4E903314FF4807376
:10569000C4E906234FF40033236201F0DFFC58B164
:1056A000FFBEFEE7084B5822C0F8D031E0E7074BB9
:1056B0005922C0F85831DBE7C5E92044A56338BD5D
:1056C00010000240700002402800024058000240D2
:1056D0002DE9F043821D05468BB0031D05F10A013B
:1056E0000830CDE9052305F10C02AB69CDE90701CE
:1056F0000992002B3DD0EB69B3FA83F84FEA5818B2
:105700000123022205AE0AAF4FF006090393CDE94B
:10571000012356F8044B2B792278934216D02B683C
:10572000F3B1012B02D1F2B10A230493204600F019
:1057300067FC03462046009300F05AFC694602F0DD
:1057400057FBBE42E5D10BB0BDE8F08369796378C1
:105750009942E4D1B8F1000FF3D02B68002BE0D1CF
:10576000CDF81090E2E76378022B14BF0A230823D8
:10577000DBE74FF00108C3E7534A0368934230B5B3
:1057800005468BB055D02032934252D04F4A9342B7
:1057900004D02032934201D00BB030BD4C4C4D4868
:1057A000D4F8E03043F00103C4F8E030D4F8E0303E
:1057B00003F001030593059BD4F8E03043F00803A0
:1057C000C4F8E030D4F8E03003F008030693069BF9
:1057D000D4F8E03043F04003C4F8E030D4F8E030CF
:1057E00003F040030793079BD4F8F03043F4000321
:1057F000C4F8F030D4F8F03003F400030893089BA9
:10580000FFF766FFD4F8D830296843F001032F4A28
:105810003048C4F8D830891AD4F8D83018BF0121DC
:1058200003F001030993099B0BB0BDE83040FFF77B
:10583000FFBE274C2848D4F8E03043F00103C4F8F9
:10584000E030D4F8E03003F001030093009BD4F87B
:10585000E03043F01003C4F8E030D4F8E03003F057
:1058600010030193019BD4F8E03043F04003C4F8E7
:10587000E030D4F8E03003F040030293029BD4F808
:10588000F03043F48003C4F8F030D4F8F03003F47F
:1058900080030393039BFFF71BFFD4F8D8302968DC
:1058A00043F00103084A0C48C4F8D830891AD4F8E8
:1058B000D83018BF012103F001030493049B0BB0FF
:1058C000BDE83040FFF7B4BE04580140045C01401D
:1058D0000044025854F60024F8F30024014801F073
:1058E00035BF00BF50F50024014801F02FBF00BFB5
:1058F000C8F50024014801F029BF00BFACF700241F
:10590000014801F023BF00BF24F800241A4A0368AD
:10591000934210B40BD02032934208D0174A9342DE
:1059200016D02032934213D05DF8044B7047144BCD
:105930000022D3F85442C3F85822002CF4D0D3F8F4
:105940004802D3E9931223465DF8044B52081847E6
:105950000B4B0022D3F8B044C3F8B424002CE3D09E
:10596000D3F8AC24D3F8A814D3F8A40452082346DF
:105970005DF8044B184700BF04580140045C014027
:10598000F8F30024184A0368934210B40BD0203275
:10599000934208D0154A934217D02032934214D034
:1059A0005DF8044B7047124BD3E994245208C3F8B6
:1059B0005822002CF4D0D3E99201234601EB820156
:1059C00000EB82005DF8044B1847094BD3F8AC2478
:1059D000D3F8B0445208C3F8B424002CE0D0D3F874
:1059E000A814D3F8A404E8E704580140045C01407B
:1059F000F8F30024000000002DE9F04F0C684FF48C
:105A00001776754F87B004FB06F6012C07EB060AE4
:105A1000C0F800A000F3A0800D468E464FF00008AD
:105A2000D44669A3D3E9002369A1D1E90001CDE9F6
:105A3000022306ABCAF8508203EB8403CDE90401CC
:105A400053F810BC53F8083CCAE992880193BEE8A9
:105A50000F00ACE80F00BEE80F00ACE80F00019BA0
:105A60009EE80300CAF828B0CAF8C0308CE80300EA
:105A70002B69042B0CD8DFE803F0737D87910300BA
:105A80004FF41773554A03FB04739A64C3F8E0207C
:105A9000AA692B6A002A43D0002B4FF4177308BF62
:105AA000022203FB047318BF0322DA6201221A6385
:105AB000EA696B6A002A40D1191E4FF4177318BFA8
:105AC000012103FB0473C3E931126B69022B05D872
:105AD000434A12F80380434A52F823904FF4177355
